:020000040000FA
:100000000C9458000C9480000C9480000C94800098
:100010000C9480000C9480000C9480000C94800060
:100020000C9480000C9480000C9480000C94800050
:100030000C9480000C9480000C9480000C94800040
:100040000C9499030C9480000C9480000C94800014
:100050000C9480000C9480000C9480000C94800020
:100060000C94E3030C94800000000000250028009D
:100070002B00040404040404040402020202020229
:10008000030303030303010204081020408001025C
:1000900004081020010204081020000000080002DB
:1000A000010000030407000000000000000002053A
:1000B00011241FBECFEFD8E0DEBFCDBF11E0A0E01E
:1000C000B1E0E6E0FCE002C005900D92AE32B1076F
:1000D000D9F722E0AEE2B1E001C01D92A930B2072B
:1000E000E1F710E0C8E5D0E004C02197FE010E94CE
:1000F000FB05C735D107C9F70E9422050C940106FC
:100100000C94000090E0FC01E656FF4F2491FC01A6
:10011000EA57FF4F3491FC01EE58FF4FE491EE2374
:10012000C9F0222339F0233001F1A8F4213019F16C
:10013000223029F1F0E0EE0FFF1FE859FF4FA591A3
:10014000B4918FB7F894EC91611126C030953E239D
:100150003C938FBF08952730A9F02830C9F0243090
:1001600049F7809180008F7D03C0809180008F7758
:1001700080938000DFCF84B58F7784BDDBCF84B5DB
:100180008F7DFBCF8091B0008F778093B000D2CF6E
:100190008091B0008F7DF9CF3E2BDACF3FB7F89436
:1001A0008091ED019091EE01A091EF01B091F001ED
:1001B00026B5A89B05C02F3F19F00196A11DB11DC2
:1001C0003FBFBA2FA92F982F8827BC01CD01620FFE
:1001D000711D811D911D42E0660F771F881F991FB9
:1001E0004A95D1F708958F929F92AF92BF92CF9286
:1001F000DF92EF92FF924B015C010E94CE006B01F7
:100200007C010E94CE006C197D098E099F09683E11
:10021000734081059105A8F321E0821A9108A10895
:10022000B10888EEC80E83E0D81EE11CF11C8114D1
:100230009104A104B10429F7FF90EF90DF90CF90D3
:10024000BF90AF909F908F90089508950895AF92BA
:10025000BF92CF92DF92EF92FF920F931F93CF93B3
:10026000DF936C017B018B01040F151FEB015E0115
:10027000AE18BF08C017D10759F06991D601ED91AA
:10028000FC910190F081E02DC6010995892B79F749
:10029000C501DF91CF911F910F91FF90EF90DF90FB
:1002A000CF90BF90AF90089520919601260F3327ED
:1002B000331F21323105ECF42091BA01FC0190E0AA
:1002C00080E0243069F082E00895A09196012191A8
:1002D000AC014A585E4FA40FB52FB11D2C93019667
:1002E000861798F380919601680F6093960180E0DD
:1002F000089581E008951092BA0181E08093BC01D5
:100300001092BB0161E082E10E94820061E083E122
:100310000E948200E9EBF0E080818E7F8083808103
:100320008D7F808388E48093B80085E48093BC004F
:100330000895CF93DF9391E0909375018823B9F0EE
:10034000C091B800D091BA008091BC008A7B8093A4
:10035000BC0060E082E10E94820060E083E10E94D4
:1003600082000E947B01D093BA00C093B800DF9155
:10037000CF9108950895E091E7018091E601E81793
:1003800030F4F0E0E05BFE4F808190E008958FEF65
:100390009FEF08959091E7018091E6012FEF3FEFE5
:1003A000981748F4E92FF0E0E05BFE4F208130E041
:1003B0009F5F9093E701C90108958091E6019091B4
:1003C000E701891B990B0895CF92DF92EF92FF927C
:1003D0000F931F93CF93DF937C01CB018A01209170
:1003E0004F01222389F0EB016B01C40ED51ECC1501
:1003F000DD0569F06991D701ED91FC910190F081E3
:10040000E02DC7010995F3CF642F0E945401C80164
:10041000DF91CF911F910F91FF90EF90DF90CF90E0
:100420000895CF93DF931F92CDB7DEB769832091F4
:100430004F012223F9F02091E401203258F021E00D
:1004400030E0FC013383228390E080E00F90DF9165
:10045000CF9108958091E501E82FF0E0E15DFE4F36
:10046000998190838F5F8093E5018093E40181E01F
:1004700090E0ECCF61E0CE0101960E945401F7CFED
:10048000CF92DF92EF92FF920F931F93CF93DF9360
:10049000FC01C48121E020934F01C0932E011092F2
:1004A000E5011092E4018385682B81EF91E00E94C1
:1004B0001102D091E401D13208F092C00E94CE0026
:1004C0006B017C018091BA01811165C082E080934B
:1004D000BA0181E08093BC018FEF8093B901109243
:1004E000DE01D093DD01AFE2B1E0EDEBF1E080E0C1
:1004F000D81385C01092DF018091DF01CC0FC82B8B
:10050000C093DF018091BB01813009F07CC0109263
:10051000BB010E94CE006B017C018091DF018093C2
:10052000BB008091710190917201A0917301B09113
:100530007401892B8A2B8B2B99F00E94CE0000919D
:1005400071011091720120917301309174016C1945
:100550007D098E099F090617170728073907E0F15B
:100560008091BC0083FDD9CF85EC8093BC000E94B4
:10057000CE006B017C018091BA01823009F445C044
:100580008091B9018F3F61F18091B901803241F1D1
:100590008091B90125C08091710190917201A09163
:1005A0007301B0917401892B8A2B8B2B09F48ACFAC
:1005B0000E94CE000091710110917201209173018F
:1005C000309174016C197D098E099F090617170770
:1005D0002807390708F076CF809170010E949901B1
:1005E0001092E5011092E40110924F01DF91CF913A
:1005F0001F910F91FF90EF90DF90CF9008959D9104
:1006000091938F5F75CF85EEB0CF809171019091FE
:100610007201A0917301B0917401892B8A2B8B2BED
:1006200009F4A9CF0E94CE000091710110917201CE
:1006300020917301309174016C197D098E099F0915
:10064000061717072807390708F095CFC5CF089573
:1006500090E080E0089585ED8093BC008091710169
:1006600090917201A0917301B09174010796A11D40
:10067000B11D23E0B695A795979587952A95D1F753
:100680002091BC0024FD03C01092BA01089540914E
:100690007101509172016091730170917401452B49
:1006A000462B472B69F30097A105B10541F02AE2DB
:1006B0002A95F1F700C00197A109B109E1CF809116
:1006C00070010C9499010F931F93CF938C01C62F47
:1006D0000E9440026C2F6460C8010E9440026C2F8F
:1006E0006B7FC8010E94400283EC90E00197F1F714
:1006F000CF911F910F9108950F931F93CF93DF9385
:100700008C01D62FC42F607F642B0E94630380E18D
:10071000D89FB00111246C2BC801DF91CF911F919C
:100720000F910C94630341E00E947C0381E090E010
:1007300008951F920F920FB60F9211242F933F939B
:100740008F939F93AF93BF938091E9019091EA01BA
:10075000A091EB01B091EC013091E80123E0230F6F
:100760002D3758F50196A11DB11D2093E801809306
:10077000E9019093EA01A093EB01B093EC01809121
:10078000ED019091EE01A091EF01B091F001019681
:10079000A11DB11D8093ED019093EE01A093EF0197
:1007A000B093F001BF91AF919F918F913F912F91A5
:1007B0000F900FBE0F901F90189526E8230F0296FA
:1007C000A11DB11DD2CF1F920F920FB60F9211240F
:1007D0002F933F934F935F936F937F938F939F9349
:1007E000AF93BF93EF93FF938091B900887F8036DA
:1007F00009F44AC0F0F5883209F4A7C018F5803131
:1008000009F49BC0B8F4882309F4F9C0883009F4CE
:1008100094C0FF91EF91BF91AF919F918F917F9184
:100820006F915F914F913F912F910F900FBE0F905D
:100830001F901895883109F488C0803251F7809351
:10084000B90114C0803409F49DC040F48033B9F379
:100850008833F9F68093B90185ECB0C0803509F48E
:1008600085C0883509F496C0883499F60E942B0318
:10087000D0CF883909F48CC038F5883729F050F486
:10088000883611F0803729F683E08093BA01109200
:10089000B80157C0883809F47BC0803919F0803816
:1008A00009F0B7CF8091B801803208F071C0E091B3
:1008B000B80181E08E0F8093B8018091BB00F0E019
:1008C000E856FE4F80833DC0803B39F0E0F4803A2B
:1008D00009F479C0883A09F09CCF84E08093BA018A
:1008E0001092970110929601E091E201F091E301DC
:1008F00009958091960181110FC081E08093960146
:100900001092760109C0803C09F4A6CF883C09F416
:10091000A3CF883B09F07DCFE091970181E08E0F56
:1009200080939701F0E0EA58FE4F80818093BB00EE
:10093000909197018091960129C08091DF01809369
:10094000BB0085EC8093BC0064CF9091DE01809168
:10095000DD01981758F5E091DE0181E08E0F80935C
:10096000DE01F0E0E354FE4F8081E9CFE091DE014B
:1009700081E08E0F8093DE018091BB00F0E0E354B4
:10098000FE4F80839091DE018091DD019817C8F2BF
:1009900085E8D8CFE091DE0181E08E0F8093DE0103
:1009A0008091BB00F0E0E354FE4F80838091BC0156
:1009B00081115CCF81E08093BB0184EA8093BC000D
:1009C0001092BA0126CF85EC8093BC001092BA0138
:1009D0008091B801803230F4E091B801F0E0E8563F
:1009E000FE4F10826091B80170E0E091E001F0915B
:1009F000E10188E991E009951092B8010ACF1092BF
:100A0000B90134CFE1EFF1E01382128288EE93E076
:100A1000A0E0B0E084839583A683B78384E091E06F
:100A200091838083EDEFF1E01382128286E191E001
:100A30009183808387E2848380E1818782E082875B
:100A400013860895789484B5826084BD84B58160EE
:100A500084BD85B5826085BD85B5816085BD809189
:100A60006E00816080936E00109281008091810001
:100A700082608093810080918100816080938100F9
:100A8000809180008160809380008091B1008460BB
:100A90008093B1008091B00081608093B00080911C
:100AA0007A00846080937A0080917A0082608093DB
:100AB0007A0080917A00816080937A0080917A0038
:100AC000806880937A001092C1001092E701109222
:100AD000E6011092E5011092E4010E947B0185E29B
:100AE00091E09093E3018093E20186E291E090939C
:100AF000E1018093E00110920202809107028230AE
:100B000018F098E0909302028093050262E370E08F
:100B100080E090E00E94F300609108028DEF91E088
:100B20000E94400268EE73E080E090E00E94F300D3
:100B300060E38DEF91E00E946303CBE4D6E4CE0145
:100B40000197F1F760E38DEF91E00E946303219735
:100B5000F1F760E38DEF91E00E94630383E592E09B
:100B60000197F1F760E28DEF91E00E9463036091DD
:100B70000202606240E08DEF91E00E947C0384E01D
:100B80008093030240E06CE08DEF91E00E947C03D3
:100B900040E061E08DEF91E00E947C03CBE3DFE178
:100BA000CE010197F1F782E08093040240E066E015
:100BB0008DEF91E00E947C0340E062E08DEF91E0D8
:100BC0000E947C032197F1F788E08093080260E09F
:100BD0008DEF91E00E9440024FE050E06EE171E045
:100BE0008DEF91E00E942701C0E0D0E02097F1F363
:100BF0000E940000FBCFEE0FFF1F0590F491E02D47
:100C00000994F894FFCF000000001102E4012803CA
:100C1000BA01DD01CA01BB010000000093032701F6
:100C20002803270363656B206C63642070726F7404
:040C30006575730073
:107E0000112484B714BE81FFF0D085E080938100F7
:107E100082E08093C00088E18093C10086E0809377
:107E2000C20080E18093C4008EE0C9D0259A86E02C
:107E300020E33CEF91E0309385002093840096BBD3
:107E4000B09BFECF1D9AA8958150A9F7CC24DD24C4
:107E500088248394B5E0AB2EA1E19A2EF3E0BF2EE7
:107E6000A2D0813461F49FD0082FAFD0023811F036
:107E7000013811F484E001C083E08DD089C08234E0
:107E800011F484E103C0853419F485E0A6D080C0E4
:107E9000853579F488D0E82EFF2485D0082F10E0AE
:107EA000102F00270E291F29000F111F8ED06801E7
:107EB0006FC0863521F484E090D080E0DECF843638
:107EC00009F040C070D06FD0082F6DD080E0C81688
:107ED00080E7D80618F4F601B7BEE895C0E0D1E017
:107EE00062D089930C17E1F7F0E0CF16F0E7DF06D8
:107EF00018F0F601B7BEE89568D007B600FCFDCFD4
:107F0000A601A0E0B1E02C9130E011968C91119780
:107F100090E0982F8827822B932B1296FA010C0160
:107F200087BEE89511244E5F5F4FF1E0A038BF0790
:107F300051F7F601A7BEE89507B600FCFDCF97BE46
:107F4000E89526C08437B1F42ED02DD0F82E2BD052
:107F50003CD0F601EF2C8F010F5F1F4F84911BD097
:107F6000EA94F801C1F70894C11CD11CFA94CF0C13
:107F7000D11C0EC0853739F428D08EE10CD085E9AC
:107F80000AD08FE07ACF813511F488E018D01DD067
:107F900080E101D065CF982F8091C00085FFFCCF94
:107FA0009093C60008958091C00087FFFCCF809118
:107FB000C00084FD01C0A8958091C6000895E0E648
:107FC000F0E098E1908380830895EDDF803219F02E
:107FD00088E0F5DFFFCF84E1DECF1F93182FE3DFCA
:107FE0001150E9F7F2DF1F91089580E0E8DFEE27F6
:047FF000FF270994CA
:027FFE00040479
:00000001FF
