:020000040000FA
:100000000C9462000C948A000C948A000C948A0070
:100010000C948A000C948A000C948A000C948A0038
:100020000C948A000C948A000C948A000C948A0028
:100030000C948A000C948A000C948A000C948A0018
:100040000C947B050C948A000C94EB050C94C5056C
:100050000C948A000C948A000C948A000C948A00F8
:100060000C941D060C948A0000000000230026005A
:10007000290000000000240027002A0000000000E2
:10008000250028002B0004040404040404040202D4
:100090000202020203030303030301020408102007
:1000A0004080010204081020010204081020000012
:1000B0000008000201000003040700000000000027
:1000C0000000810711241FBECFEFD8E0DEBFCDBFF7
:1000D00011E0A0E0B1E0E2E8F7E102C005900D9286
:1000E000A437B107D9F722E0A4E7B1E001C01D921F
:1000F000AE3EB207E1F710E0C2E6D0E004C02197BF
:10010000FE010E94B90BC136D107C9F70E94C90789
:100110000C94BF0B0C94000090E0FC01E255FF4FE3
:100120002491FC01E656FF4F3491FC01EA57FF4F42
:10013000E491EE23C9F0222339F0233001F1A8F431
:10014000213019F1223029F1F0E0EE0FFF1FE458C1
:10015000FF4FA591B4918FB7F894EC91611126C02F
:1001600030953E233C938FBF08952730A9F0283067
:10017000C9F0243049F7809180008F7D03C08091C1
:1001800080008F7780938000DFCF84B58F7784BD28
:10019000DBCF84B58F7DFBCF8091B0008F778093CC
:1001A000B000D2CF8091B0008F7DF9CF3E2BDACF57
:1001B000CF93DF9390E0FC01E656FF4F24918A57DE
:1001C0009F4FFC0184918823D1F090E0880F991F04
:1001D000FC01EE58FF4FA591B491FC01E458FF4F8C
:1001E000C591D49161110EC09FB7F8948C91E22F04
:1001F000E0958E238C932881E223E8839FBFDF91D3
:10020000CF9108958FB7F894EC91E22BEC938FBFC8
:10021000F6CF3FB7F8948091350290913602A091C5
:100220003702B091380226B5A89B05C02F3F19F0C0
:100230000196A11DB11D3FBFBA2FA92F982F882766
:10024000BC01CD01620F711D811D911D42E0660F41
:10025000771F881F991F4A95D1F708958F929F9213
:10026000AF92BF92CF92DF92EF92FF924B015C016F
:100270000E9409016B017C010E9409016C197D0932
:100280008E099F09683E734081059105A8F321E01E
:10029000821A9108A108B10888EEC80E83E0D81E22
:1002A000E11CF11C81149104A104B10429F7FF9011
:1002B000EF90DF90CF90BF90AF909F908F90089578
:1002C00008950895AF92BF92CF92DF92EF92FF927E
:1002D0000F931F93CF93DF936C017B018B01040F6E
:1002E000151FEB015E01AE18BF08C017D10759F00A
:1002F0006991D601ED91FC910190F081E02DC6014C
:100300000995892B79F7C501DF91CF911F910F9145
:10031000FF90EF90DF90CF90BF90AF900895FC01D9
:10032000538D448D252F30E0842F90E0821B930B5A
:10033000541710F0CF96089501970895FC01918D00
:10034000828D981761F0A28DAE0FBF2FB11D5D9603
:100350008C91928D9F5F9F73928F90E008958FEFA5
:100360009FEF0895FC01918D828D981731F0828D59
:10037000E80FF11D858D90E008958FEF9FEF0895B0
:10038000FC01918D228D892F90E0805C9F4F821B14
:1003900091098F739927089589E392E00E94C00123
:1003A00021E0892B09F420E0822F089580E090E07D
:1003B000892B29F00E94CC0181110C940000089532
:1003C000FC01A48DA80FB92FB11DA35ABF4F2C91CA
:1003D000848D90E001968F739927848FA689B789C1
:1003E0002C93A089B1898C91837080648C93938DB8
:1003F000848D981306C00288F389E02D80818F7D5B
:1004000080830895EF92FF920F931F93CF93DF9312
:10041000EC0181E0888F9B8D8C8D98131AC0E88940
:10042000F989808185FF15C09FB7F894EE89FF890F
:100430006083E889F98980818370806480839FBFAD
:1004400081E090E0DF91CF911F910F91FF90EF90AD
:100450000895F62E0B8D10E00F5F1F4F0F731127BD
:10046000E02E8C8D8E110CC00FB607FCFACFE889F8
:10047000F989808185FFF5CFCE010E94E001F1CF9F
:10048000EB8DEC0FFD2FF11DE35AFF4FF0829FB76C
:10049000F8940B8FEA89FB8980818062CFCFCF935C
:1004A000DF93EC01888D8823B9F0AA89BB89E8899C
:1004B000F9898C9185FD03C0808186FD0DC00FB642
:1004C00007FCF7CF8C9185FFF2CF808185FFEDCFC0
:1004D000CE010E94E001E9CFDF91CF9108952091F4
:1004E000DC01260F3327331F21323105ECF4209134
:1004F0000002FC0190E080E0243069F082E0089581
:10050000A091DC012191AC0144545E4FA40FB52FA2
:10051000B11D2C930196861798F38091DC01680F2A
:100520006093DC0180E0089581E00895109200025C
:1005300081E0809302021092010261E082E10E9458
:100540008C0061E083E10E948C00E9EBF0E08081A7
:100550008E7F808380818D7F808388E48093B80044
:1005600085E48093BC000895CF93DF9391E090934E
:10057000BB018823B9F0C091B800D091BA00809136
:10058000BC008A7B8093BC0060E082E10E948C000A
:1005900060E083E10E948C000E949602D093BA0032
:1005A000C093B800DF91CF9108950895E0912D0296
:1005B00080912C02E81730F4F0E0EA56FE4F80817B
:1005C00090E008958FEF9FEF089590912D02809114
:1005D0002C022FEF3FEF981748F4E92FF0E0EA568E
:1005E000FE4F208130E09F5F90932D02C901089556
:1005F00080912C0290912D02891B990B0895CF9226
:10060000DF92EF92FF920F931F93CF93DF937C01C2
:10061000CB018A0120919501222389F0EB016B0126
:10062000C40ED51ECC15DD0569F06991D701ED9199
:10063000FC910190F081E02DC7010995F3CF642F63
:100640000E946F02C801DF91CF911F910F91FF901F
:10065000EF90DF90CF900895CF93DF931F92CDB7A7
:10066000DEB76983209195012223F9F020912A02B7
:10067000203258F021E030E0FC013383228390E007
:1006800080E00F90DF91CF91089580912B02E82FA9
:10069000F0E0EB58FE4F998190838F5F80932B029F
:1006A00080932A0281E090E0ECCF61E0CE010196D8
:1006B0000E946F02F7CFCF92DF92EF92FF920F93DB
:1006C0001F93CF93DF93FC01C48121E02093950118
:1006D000C093740110922B0210922A028385682B1A
:1006E00086ED92E00E942C03D0912A02D13208F0CC
:1006F00092C00E9409016B017C018091000281116E
:1007000065C082E08093000281E0809302028FEF57
:100710008093FF0110922402D0932302A5E7B1E059
:10072000E3E0F2E080E0D81385C0109225028091CA
:100730002502CC0FC82BC093250280910102813085
:1007400009F07CC0109201020E9409016B017C013A
:10075000809125028093BB008091B7019091B801F0
:10076000A091B901B091BA01892B8A2B8B2B99F0FA
:100770000E9409010091B7011091B8012091B901BF
:100780003091BA016C197D098E099F090617170768
:1007900028073907E0F18091BC0083FDD9CF85ECB3
:1007A0008093BC000E9409016B017C0180910002D2
:1007B000823009F445C08091FF018F3F61F1809143
:1007C000FF01803241F18091FF0125C08091B70186
:1007D0009091B801A091B901B091BA01892B8A2BEF
:1007E0008B2B09F48ACF0E9409010091B701109167
:1007F000B8012091B9013091BA016C197D098E09B7
:100800009F09061717072807390708F076CF809148
:10081000B6010E94B40210922B0210922A0210928A
:100820009501DF91CF911F910F91FF90EF90DF9095
:10083000CF9008959D9191938F5F75CF85EEB0CF46
:100840008091B7019091B801A091B901B091BA011E
:10085000892B8A2B8B2B09F4A9CF0E9409010091C7
:10086000B7011091B8012091B9013091BA016C190A
:100870007D098E099F09061717072807390708F011
:1008800095CFC5CF089590E080E008950F931F9312
:10089000CF938C01C62F0E945B036C2F6460C8014C
:1008A0000E945B036C2F6B7FC8010E945B0383EC8B
:1008B00090E00197F1F7CF911F910F9108950F9359
:1008C0001F93CF93DF938C01D62FC42F607F642BAF
:1008D0000E94460480E1D89FB00111246C2BC8010E
:1008E000DF91CF911F910F910C944604CF93DF932A
:1008F000CDB7DEB728970FB6F894DEBF0FBECDBFD9
:1009000098E0E0E0F1E0DE01119601900D929A95F9
:10091000E1F79091EA02961708F46FEF262F30E086
:10092000220F331F41E050E04C0F5D1F240F351F95
:10093000F9016081680F606840E082EE92E02896DD
:100940000FB6F894DEBF0FBECDBFDF91CF910C94F0
:100950005F0441E00E945F0481E090E00895FB01A4
:1009600001900020E9F73197AF01461B570BDC01DE
:10097000ED91FC910280F381E02D09944F925F92FA
:100980006F927F92AF92BF92CF92DF92EF92FF92DF
:100990000F931F93CF93DF93CDB7DEB7A1970FB619
:1009A000F894DEBF0FBECDBF5C016A017B01F7FE8C
:1009B00047C0DC01ED91FC910190F081E02D6DE2EA
:1009C00009958C0122273327A9012C193D094E09CD
:1009D0005F0919A2FE01B1967F019AE0492E512CC0
:1009E000612C712CCA01B901A30192010E94780BFC
:1009F000605DD7016E937D012115310541055105DB
:100A000089F790E080E0109721F0BD01C5010E94B8
:100A1000AF04800F911FA1960FB6F894DEBF0FBEF2
:100A2000CDBFDF91CF911F910F91FF90EF90DF909D
:100A3000CF90BF90AF907F906F905F904F90089550
:100A4000AB01960119A28E010F5D1F4F8AE0C82EDF
:100A5000D12CE12CF12CCA01B901A70196010E9409
:100A6000780B605DF80162938F0121153105410516
:100A7000510589F790E080E0309769F2BF01C50128
:100A80000E94AF04C8CF85ED8093BC008091B70170
:100A90009091B801A091B901B091BA010796A11D3A
:100AA000B11D23E0B695A795979587952A95D1F71F
:100AB0002091BC0024FD03C01092000208954091D3
:100AC000B7015091B8016091B9017091BA01452BFD
:100AD000462B472B69F30097A105B10541F02AE2A7
:100AE0002A95F1F700C00197A109B109E1CF8091E2
:100AF000B6010C94B4021F920F920FB60F921124FC
:100B00002F933F938F939F93AF93BF938091310225
:100B100090913202A0913302B091340230913002B0
:100B200023E0230F2D3758F50196A11DB11D209309
:100B300030028093310290933202A0933302B0933B
:100B400034028091350290913602A0913702B09123
:100B500038020196A11DB11D809335029093360293
:100B6000A0933702B0933802BF91AF919F918F91BC
:100B70003F912F910F900FBE0F901F90189526E870
:100B8000230F0296A11DB11DD2CF1F920F920FB657
:100B90000F9211242F933F934F935F936F937F9303
:100BA0008F939F93AF93BF93EF93FF9389E392E06B
:100BB0000E94E001FF91EF91BF91AF919F918F91C2
:100BC0007F916F915F914F913F912F910F900FBE49
:100BD0000F901F9018951F920F920FB60F9211242D
:100BE0002F938F939F93EF93FF93E0914902F0919E
:100BF0004A028081E0914F02F091500282FD1BC0B9
:100C00009081809152028F5F8F73209153028217DF
:100C100041F0E0915202F0E0E75CFD4F958F809348
:100C20005202FF91EF919F918F912F910F900FBEE4
:100C30000F901F9018958081F4CF1F920F920FB6DE
:100C40000F9211242F933F934F935F936F937F9352
:100C50008F939F93AF93BF93EF93FF938091B900CE
:100C6000887F803609F44AC0F0F5883209F4A7C0BD
:100C700018F5803109F49BC0B8F4882309F4F9C051
:100C8000883009F494C0FF91EF91BF91AF919F918B
:100C90008F917F916F915F914F913F912F910F9025
:100CA0000FBE0F901F901895883109F488C08032CC
:100CB00051F78093FF0114C0803409F49DC040F4C3
:100CC0008033B9F38833F9F68093FF0185ECB0C027
:100CD000803509F485C0883509F496C0883499F6C2
:100CE0000E944305D0CF883909F48CC038F5883785
:100CF00029F050F4883611F0803729F683E080938C
:100D000000021092FE0157C0883809F47BC0803978
:100D100019F0803809F0B7CF8091FE01803208F0D9
:100D200071C0E091FE0181E08E0F8093FE01809101
:100D3000BB00F0E0E252FE4F80833DC0803B39F0C3
:100D4000E0F4803A09F479C0883A09F09CCF84E055
:100D5000809300021092DD011092DC01E0912802E4
:100D6000F091290209958091DC0181110FC081E089
:100D70008093DC011092BC0109C0803C09F4A6CF2D
:100D8000883C09F4A3CF883B09F07DCFE091DD01D9
:100D900081E08E0F8093DD01F0E0E454FE4F80810E
:100DA0008093BB009091DD018091DC0129C080918E
:100DB00025028093BB0085EC8093BC0064CF9091AA
:100DC000240280912302981758F5E091240281E0D3
:100DD0008E0F80932402F0E0ED5FFD4F8081E9CF1C
:100DE000E091240281E08E0F809324028091BB0069
:100DF000F0E0ED5FFD4F808390912402809123020B
:100E00009817C8F285E8D8CFE091240281E08E0FD0
:100E1000809324028091BB00F0E0ED5FFD4F808362
:100E20008091020281115CCF81E08093010284EA0B
:100E30008093BC001092000226CF85EC8093BC000A
:100E4000109200028091FE01803230F4E091FE01A8
:100E5000F0E0E252FE4F10826091FE0170E0E091FE
:100E60002602F09127028EED91E009951092FE0185
:100E70000ACF1092FF0134CFCF92DF92EF92FF9210
:100E80000F931F93E82FF92F05C001501109210975
:100E9000310961F1908196239417B9F305C001508F
:100EA00011092109310911F1908196239413F7CF8B
:100EB000C12CD12CE12CF12C0AC08FEFC81AD80A12
:100EC000E80AF80A0C151D052E053F0579F080810A
:100ED0008623841791F36C2D7D2D8E2D9F2D1F91D0
:100EE0000F91FF90EF90DF90CF90089560E070E059
:100EF00080E090E01F910F91FF90EF90DF90CF90F6
:100F00000895E9E3F2E01382128288EE93E0A0E014
:100F1000B0E084839583A683B7832CE031E03183EE
:100F2000208325EC30E03587248724EC30E03787B8
:100F3000268720EC30E0318B208B21EC30E0338BA6
:100F4000228B22EC30E0358B248B26EC30E0378B83
:100F5000268B118E128E138E148EE6EDF2E0138224
:100F6000128284839583A683B7838EE191E0918377
:100F70008083E2EEF2E01382128280E391E09183BB
:100F8000808387E2848380E1818782E08287138681
:100F90000895789484B5826084BD84B5816084BDF1
:100FA00085B5826085BD85B5816085BD80916E0007
:100FB000816080936E001092810080918100826038
:100FC0008093810080918100816080938100809175
:100FD00080008160809380008091B1008460809364
:100FE000B1008091B00081608093B00080917A0060
:100FF000846080937A0080917A00826080937A0086
:1010000080917A00816080937A0080917A00806874
:1010100080937A001092C100E0914902F0914A0257
:1010200082E08083E0914502F09146021082E091D7
:101030004702F09148028FEC808310925102E091B8
:101040004D02F0914E0286E08083E0914B02F091D8
:101050004C02808180618083E0914B02F0914C02D0
:10106000808188608083E0914B02F0914C02808106
:1010700080688083E0914B02F0914C0280818F7DEB
:10108000808310922D0210922C0210922B0210924B
:101090002A020E94960280E691E0909329028093B2
:1010A000280281E691E09093270280932602109215
:1010B000E7028091EC02823018F098E09093E7020A
:1010C0008093EA0262E370E080E090E00E942E01EB
:1010D0006091ED0282EE92E00E945B0368EE73E0A5
:1010E00080E090E00E942E0160E382EE92E00E9498
:1010F0004604CBE4D6E4CE010197F1F760E382EE3B
:1011000092E00E9446042197F1F760E382EE92E0BC
:101110000E94460483E592E00197F1F760E282EED7
:1011200092E00E9446046091E702606240E082EE35
:1011300092E00E945F0484E08093E80240E06CE06B
:1011400082EE92E00E945F0440E061E082EE92E075
:101150000E945F04CBE3DFE1CE010197F1F782E06B
:101160008093E90240E066E082EE92E00E945F0434
:1011700040E062E082EE92E00E945F04CE010197BF
:10118000F1F788E08093ED0260E082EE92E00E9449
:101190005B0368E371E082EE92E00E94AF0461E0DD
:1011A00080E00E9476046AE471E082EE92E00E94A0
:1011B000AF0468EE73E080E090E00E942E0140E012
:1011C00061E082EE92E00E945F042197F1F760E017
:1011D0008FE00E94D80061E082E00E94D80060E0C9
:1011E00083E00E94D800C3E0D0E093E2A92EB12CA6
:1011F00029E8222E20E0322E3AE3432E512C612C96
:10120000712C40E0842E40E0942E81E480937C0099
:1012100080917A00806480937A0080917A0086FDC4
:10122000FCCF6091780070917900072E000C880B3C
:10123000990B0E947F0A20E030EC4FE754E40E94B3
:10124000D50920E030E040EA50E40E940B0B20E09A
:1012500030E048EC52E40E940B0B0E94470A709366
:101260002F0260932E0260E082E00E948C00CE018B
:101270000197F1F761E082E00E948C00C5010197BF
:10128000F1F760E082E00E948C00EDE9F0E064910B
:10129000F1018491E82FF0E0EE0FFF1FE859FF4FB6
:1012A0008591949100E412E42FE030E0462F0E94F3
:1012B0003C07611571058105910529F06F5F7F4F2E
:1012C0008F4F9F4F9F70A30192010E949A0B69015B
:1012D0007A0160E080E00E94760469E571E082EEC8
:1012E00092E00E94AF0460E089E00E9476044091A1
:1012F0002E0250912F02052E000C660B770B82EE0A
:1013000092E00E94BE0460E08CE00E94760463E6F6
:1013100071E082EE92E00E94AF0440912E02509163
:101320002F02052E000C660B770B89E392E00E94DA
:10133000BE0465E671E089E392E00E94AF0461E0DB
:1013400080E00E94760468E671E082EE92E00E94FE
:10135000AF0461E086E00E947604B701A60182EE48
:1013600092E00E94BE0461E089E00E94760460E79A
:1013700071E082EE92E00E94AF04B701A60189E31A
:1013800092E00E94BE0465E671E089E392E00E946B
:10139000AF048114910409F438CF0E94CC01882352
:1013A00009F433CF0E94000030CF0E94E9090C9469
:1013B000D10A0E94CA0A58F00E94C30A40F029F4D8
:1013C0005F3F29F00C94BA0A51110C94050B0C9450
:1013D000C00A0E94E20A68F39923B1F3552391F3FE
:1013E000951B550BBB27AA2762177307840738F094
:1013F0009F5F5F4F220F331F441FAA1FA9F335D0F1
:101400000E2E3AF0E0E832D091505040E695001CA4
:10141000CAF72BD0FE2F29D0660F771F881FBB1F5E
:10142000261737074807AB07B0E809F0BB0B802D3C
:10143000BF01FF2793585F4F3AF09E3F510578F068
:101440000C94BA0A0C94050B5F3FE4F3983ED4F376
:10145000869577956795B795F7959F5FC9F7880F3C
:10146000911D9695879597F90895E1E0660F771F8E
:10147000881FBB1F621773078407BA0720F0621B1F
:10148000730B840BBA0BEE1F88F7E09508950E944A
:101490004E0A6894B1110C94050B08950E94EA0A53
:1014A00088F09F5798F0B92F9927B751B0F0E1F025
:1014B000660F771F881F991F1AF0BA95C9F714C0D5
:1014C000B13091F00E94040BB1E008950C94040B2C
:1014D000672F782F8827B85F39F0B93FCCF386950E
:1014E00077956795B395D9F73EF49095809570956B
:1014F00061957F4F8F4F9F4F0895E89409C097FBE8
:101500003EF490958095709561957F4F8F4F9F4FDA
:101510009923A9F0F92F96E9BB279395F69587951E
:1015200077956795B795F111F8CFFAF4BB0F11F4E1
:1015300060FF1BC06F5F7F4F8F4F9F4F16C0882388
:1015400011F096E911C0772321F09EE8872F762FBE
:1015500005C0662371F096E8862F70E060E02AF0FF
:101560009A95660F771F881FDAF7880F96958795EB
:1015700097F9089597F99F6780E870E060E0089513
:101580009FEF80EC089500240A941616170618069B
:101590000906089500240A94121613061406050677
:1015A0000895092E0394000C11F4882352F0BB0F08
:1015B00040F4BF2B11F460FF04C06F5F7F4F8F4F6B
:1015C0009F4F089557FD9058440F551F59F05F3FA6
:1015D00071F04795880F97FB991F61F09F3F79F055
:1015E00087950895121613061406551FF2CF4695D7
:1015F000F1DF08C0161617061806991FF1CF869559
:101600007105610508940895E894BB27662777273C
:10161000CB0197F908950E941E0B0C94D10A0E94E9
:10162000C30A38F00E94CA0A20F0952311F00C94E6
:10163000BA0A0C94C00A11240C94050B0E94E20A09
:1016400070F3959FC1F3950F50E0551F629FF00115
:10165000729FBB27F00DB11D639FAA27F00DB11D2E
:10166000AA1F649F6627B00DA11D661F829F2227B7
:10167000B00DA11D621F739FB00DA11D621F839F3E
:10168000A00D611D221F749F3327A00D611D231F14
:10169000849F600D211D822F762F6A2F11249F5762
:1016A00050409AF0F1F088234AF0EE0FFF1FBB1F65
:1016B000661F771F881F91505040A9F79E3F510524
:1016C00080F00C94BA0A0C94050B5F3FE4F3983E4B
:1016D000D4F3869577956795B795F795E7959F5FCE
:1016E000C1F7FE2B880F911D9695879597F9089560
:1016F000A1E21A2EAA1BBB1BFD010DC0AA1FBB1F16
:10170000EE1FFF1FA217B307E407F50720F0A21B87
:10171000B30BE40BF50B661F771F881F991F1A94F4
:1017200069F760957095809590959B01AC01BD011E
:10173000CF010895052E97FB1EF400940E94B10B73
:1017400057FD07D00E94780B07FC03D04EF40C9491
:10175000B10B50954095309521953F4F4F4F5F4FBE
:10176000089590958095709561957F4F8F4F9F4F0D
:101770000895EE0FFF1F0590F491E02D0994F89461
:10178000FFCF0000400014005400000000000202DF
:1017900062018F014F02C0019E01B20100000000F2
:1017A0002C03FF024304D502F802E502D602000032
:1017B0000000A90462014304420473656E736F72F2
:1017C00020696E737472756D656E740074656D70EA
:1017D00065722026206C6576656C0063656C6369B4
:1017E00075733A200043000D0A006A6172616B3A1A
:0617F000200020636D00E3
:107E0000112484B714BE81FFF0D085E080938100F7
:107E100082E08093C00088E18093C10086E0809377
:107E2000C20080E18093C4008EE0C9D0259A86E02C
:107E300020E33CEF91E0309385002093840096BBD3
:107E4000B09BFECF1D9AA8958150A9F7CC24DD24C4
:107E500088248394B5E0AB2EA1E19A2EF3E0BF2EE7
:107E6000A2D0813461F49FD0082FAFD0023811F036
:107E7000013811F484E001C083E08DD089C08234E0
:107E800011F484E103C0853419F485E0A6D080C0E4
:107E9000853579F488D0E82EFF2485D0082F10E0AE
:107EA000102F00270E291F29000F111F8ED06801E7
:107EB0006FC0863521F484E090D080E0DECF843638
:107EC00009F040C070D06FD0082F6DD080E0C81688
:107ED00080E7D80618F4F601B7BEE895C0E0D1E017
:107EE00062D089930C17E1F7F0E0CF16F0E7DF06D8
:107EF00018F0F601B7BEE89568D007B600FCFDCFD4
:107F0000A601A0E0B1E02C9130E011968C91119780
:107F100090E0982F8827822B932B1296FA010C0160
:107F200087BEE89511244E5F5F4FF1E0A038BF0790
:107F300051F7F601A7BEE89507B600FCFDCF97BE46
:107F4000E89526C08437B1F42ED02DD0F82E2BD052
:107F50003CD0F601EF2C8F010F5F1F4F84911BD097
:107F6000EA94F801C1F70894C11CD11CFA94CF0C13
:107F7000D11C0EC0853739F428D08EE10CD085E9AC
:107F80000AD08FE07ACF813511F488E018D01DD067
:107F900080E101D065CF982F8091C00085FFFCCF94
:107FA0009093C60008958091C00087FFFCCF809118
:107FB000C00084FD01C0A8958091C6000895E0E648
:107FC000F0E098E1908380830895EDDF803219F02E
:107FD00088E0F5DFFFCF84E1DECF1F93182FE3DFCA
:107FE0001150E9F7F2DF1F91089580E0E8DFEE27F6
:047FF000FF270994CA
:027FFE00040479
:00000001FF
